{"abi":[{"type":"constructor","inputs":[],"stateMutability":"nonpayable"},{"type":"function","name":"addEmployee","inputs":[{"name":"_employee","type":"address","internalType":"address"},{"name":"_salary","type":"uint256","internalType":"uint256"}],"outputs":[],"stateMutability":"nonpayable"},{"type":"function","name":"depositFunds","inputs":[],"outputs":[],"stateMutability":"payable"},{"type":"function","name":"employees","inputs":[{"name":"","type":"uint256","internalType":"uint256"}],"outputs":[{"name":"","type":"address","internalType":"address"}],"stateMutability":"view"},{"type":"function","name":"employeesSalaries","inputs":[{"name":"","type":"address","internalType":"address"}],"outputs":[{"name":"","type":"uint256","internalType":"uint256"}],"stateMutability":"view"},{"type":"function","name":"getEmployeesList","inputs":[],"outputs":[{"name":"","type":"uint256","internalType":"uint256"}],"stateMutability":"view"},{"type":"function","name":"getEmployeesSalaries","inputs":[{"name":"_employee","type":"address","internalType":"address"}],"outputs":[{"name":"","type":"uint256","internalType":"uint256"}],"stateMutability":"view"},{"type":"function","name":"getOwnersBalance","inputs":[],"outputs":[{"name":"","type":"uint256","internalType":"uint256"}],"stateMutability":"view"},{"type":"function","name":"owner","inputs":[],"outputs":[{"name":"","type":"address","internalType":"address"}],"stateMutability":"view"},{"type":"function","name":"payEmployees","inputs":[],"outputs":[],"stateMutability":"nonpayable"},{"type":"function","name":"removeEmployee","inputs":[{"name":"_employee","type":"address","internalType":"address"}],"outputs":[],"stateMutability":"nonpayable"},{"type":"event","name":"EmployeeAdded","inputs":[{"name":"employee","type":"address","indexed":true,"internalType":"address"},{"name":"amount","type":"uint256","indexed":false,"internalType":"uint256"}],"anonymous":false},{"type":"event","name":"EmployeePaid","inputs":[{"name":"employee","type":"address","indexed":true,"internalType":"address"},{"name":"amount","type":"uint256","indexed":false,"internalType":"uint256"}],"anonymous":false},{"type":"event","name":"EmployeeRemoved","inputs":[{"name":"employee","type":"address","indexed":true,"internalType":"address"},{"name":"amount","type":"uint256","indexed":false,"internalType":"uint256"}],"anonymous":false},{"type":"error","name":"NotAuthorized","inputs":[]},{"type":"error","name":"NotEnoughFunds","inputs":[]},{"type":"error","name":"TransactionFailed","inputs":[]}],"bytecode":{"object":"0x608060405234801561001057600080fd5b50600080546001600160a01b03191633179055610717806100326000396000f3fe6080604052600436106100915760003560e01c8063beefbe4311610059578063beefbe431461015a578063d108177a14610190578063e2c41dbc146101b0578063e7fd9a13146101b8578063ee1971ea146101d857600080fd5b8063324f3033146100965780634739326b146100d65780638da5cb5b1461010e578063a08a1b991461012e578063b1670d5c14610145575b600080fd5b3480156100a257600080fd5b506100c36100b1366004610608565b60016020526000908152604090205481565b6040519081526020015b60405180910390f35b3480156100e257600080fd5b506100f66100f136600461062a565b6101eb565b6040516001600160a01b0390911681526020016100cd565b34801561011a57600080fd5b506000546100f6906001600160a01b031681565b34801561013a57600080fd5b50610143610215565b005b34801561015157600080fd5b506002546100c3565b34801561016657600080fd5b506100c3610175366004610608565b6001600160a01b031660009081526001602052604090205490565b34801561019c57600080fd5b506101436101ab366004610608565b61037b565b610143610502565b3480156101c457600080fd5b506101436101d3366004610643565b61052f565b3480156101e457600080fd5b50476100c3565b600281815481106101fb57600080fd5b6000918252602090912001546001600160a01b0316905081565b6000546001600160a01b031633146102405760405163ea8e4eb560e01b815260040160405180910390fd5b60005b600254811015610378576000600282815481106102625761026261066d565b60009182526020808320909101546001600160a01b03168083526001909152604090912054909150478111156102ab57604051631036b5ad60e31b815260040160405180910390fd5b6000826001600160a01b03168260405160006040518083038185875af1925050503d80600081146102f8576040519150601f19603f3d011682016040523d82523d6000602084013e6102fd565b606091505b505090508061031f576040516317f2c34560e31b815260040160405180910390fd5b826001600160a01b03167fd83bfc12be414f30a785230b3b27888a2bf2f4b9d6f56cae4043fff9fe0f8d738360405161035a91815260200190565b60405180910390a2505050808061037090610699565b915050610243565b50565b6000546001600160a01b031633146103a65760405163ea8e4eb560e01b815260040160405180910390fd5b60005b6002548110156104fe57816001600160a01b0316600282815481106103d0576103d061066d565b6000918252602090912001546001600160a01b0316036104ec57600280546103fa906001906106b2565b8154811061040a5761040a61066d565b600091825260209091200154600280546001600160a01b0390921691839081106104365761043661066d565b9060005260206000200160006101000a8154816001600160a01b0302191690836001600160a01b031602179055506002805480610475576104756106cb565b60008281526020808220600019908401810180546001600160a01b03191690559092019092556001600160a01b03841680835260018252604080842080549490555183815290917f0df1b9563736a12ee1ee68f0afa65fea048466741b23610aec9b9edf5ac04980910160405180910390a2505050565b806104f681610699565b9150506103a9565b5050565b6000546001600160a01b0316331461052d5760405163ea8e4eb560e01b815260040160405180910390fd5b565b6000546001600160a01b0316331461055a5760405163ea8e4eb560e01b815260040160405180910390fd5b6002805460018082019092557f405787fa12a823e0f2b7631cc41b3ba8828b3321ca811111fa75cd3aa3bb5ace0180546001600160a01b0319166001600160a01b038516908117909155600081815260209283526040908190208490555183815290917fbe7f6b46c4532a5c90b0500f056ec43ad5e7ac8c4d410c5351ea9a4a4bed2a0a910160405180910390a25050565b80356001600160a01b038116811461060357600080fd5b919050565b60006020828403121561061a57600080fd5b610623826105ec565b9392505050565b60006020828403121561063c57600080fd5b5035919050565b6000806040838503121561065657600080fd5b61065f836105ec565b946020939093013593505050565b634e487b7160e01b600052603260045260246000fd5b634e487b7160e01b600052601160045260246000fd5b6000600182016106ab576106ab610683565b5060010190565b818103818111156106c5576106c5610683565b92915050565b634e487b7160e01b600052603160045260246000fdfea26469706673582212206248137f3822bf7014f327dced1e0636ca75256fca283b7c0a3d4ceca732d56d64736f6c63430008130033","linkReferences":{}},"methodIdentifiers":{"addEmployee(address,uint256)":"e7fd9a13","depositFunds()":"e2c41dbc","employees(uint256)":"4739326b","employeesSalaries(address)":"324f3033","getEmployeesList()":"b1670d5c","getEmployeesSalaries(address)":"beefbe43","getOwnersBalance()":"ee1971ea","owner()":"8da5cb5b","payEmployees()":"a08a1b99","removeEmployee(address)":"d108177a"},"id":25}